:0400000063EF00F0BA
:0600080041820DED04F041
:100018004180D8CFACF0E8CFADF0E0CFAEF0FACF6A
:10002800AFF0FBCFB0F0E9CFB1F0EACFB2F0E1CF5B
:10003800B3F0E2CFB4F0D9CFB5F0DACFB6F0F3CF62
:10004800B7F0F4CFB8F0F6CFB9F0F7CFBAF0F8CFF1
:10005800BBF0F5CFBCF041C0BDF042C0BEF043C01C
:10006800BFF044C0C0F0C0C044F0BFC043F0BEC041
:1000780042F0BDC041F0BCC0F5FFBBC0F8FFBAC03C
:10008800F7FFB9C0F6FFB8C0F4FFB7C0F3FFB6C0BA
:10009800DAFFB5C0D9FFB4C0E2FFB3C0E1FFB2C018
:1000A800EAFFB1C0E9FFB0C0FBFFAFC0FAFFAEC0C6
:1000B800E0FFADC0E8FFACC0D8FF4190100059EF99
:0200C80008F03E
:1008000000A214010000004E13010200007C0E0142
:100810000203001C1301000000000600FACF0DF0D7
:10082000FBCF0EF0E9CF0FF0EACF10F0E1CF11F0DF
:10083000E2CF12F0D9CF13F0DACF14F0F3CF15F0E6
:10084000F4CF16F0F6CF17F0F7CF18F0F8CF19F075
:10085000F5CF1AF041C01BF042C01CF043C01DF0A0
:1008600044C01EF0F2A228D081B005D04BEC0AF0B3
:1008700047EC0AF004D045EC0AF049EC0AF01EEC13
:100880000AF0020E0124D96E000E0220DA6E81A059
:1008900002D0010E01D0000EDF6E1EEC0AF001C086
:1008A000D9FF02C0DAFFB6EC08F009C0DEFF0AC0CB
:1008B000DDFF05EC0AF0F2921EC044F01DC043F0CB
:1008C0001CC042F01BC041F01AC0F5FF19C0F8FF70
:1008D00018C0F7FF17C0F6FF16C0F4FF15C0F3FFEE
:1008E00014C0DAFF13C0D9FF12C0E2FF11C0E1FF4C
:1008F00010C0EAFF0FC0E9FF0EC0FBFF0DC0FAFFFA
:100900004192110000018269A605D8A40ED0F7EC2F
:1009100009F0910E0001C35D010EC459D8A005D0A5
:10092000020E826FB7EC09F020D00001C951A61960
:10093000D8B41BD0A6C0C9F0A651D8A408D02D0E9B
:10094000A45D010EA559D8A002D0000E0DD0A5516E
:1009500004E1150EA45DD8A008D02C0EA45D010EF4
:10096000A559D8B002D0010E826F00018229D8B4F7
:1009700012008251010D020EF326000EF422010E28
:10098000266E080E276EF3502626F4502722835138
:10099000060DF3502626F450272226C0F6FF27C066
:1009A000F7FF0800F5CF83F08351060D010EF32405
:1009B000F66E080EF420F76E01D812000500FA6EEC
:1009C0000900F550FD6E0900F550FE6EF850FF6EFF
:1009D000FA50120006EC09F00009D8A41200280E03
:1009E0000001C16F000EC26F3AEC08F0276E27506D
:1009F000D8A41FD09FEC09F0120014EC09F057ECBA
:100A000009F097EC09F0120030EC09F097EC09F0CE
:100A100012003DEC09F097EC09F012004AEC09F0E5
:100A200097EC09F0120064EC09F0120064EC09F094
:100A3000120028C025F029C026F02650610AD8B43B
:100A40000DD0A80AD8B40FD0180AD8B411D0380ADB
:100A5000D8B413D0180AD8B415D0E8D725500F0A47
:100A6000D8B4CBD7E3D725500F0AD8B4D2D7DED726
:100A700025500F0AD8B4C8D7D9D725500F0AD8B4F3
:100A8000D2D7D4D725500F0AD8B4C8D7CFD7000EA5
:100A90000001C76F84C0C5F085C0C6F020EE02F02B
:100AA0008451D9268551DA22DECF84F0DDCF85F05E
:100AB0001ED020EE02F08451D9268551DA22DECFF5
:100AC00084F0DDCF85F0C551841911E1C651851937
:100AD000D8A40DD020EE04F08451D9268551DA2215
:100AE000DE50DE10D8B40DD0010EC76F0AD020EE54
:100AF00004F08451D9268551DA22DE50DE10D8A4C4
:100B0000D8D7C751D8A4120084C0D9FF85C0DAFF56
:100B100001D812000500FA6EDE50FD6EDE50FE6E4A
:100B2000F850FF6EFA50120084C021F085C022F008
:100B3000000120EE02F08451D9268551DA22DECF61
:100B400023F0DDCF24F01ED020EE02F02350D92672
:100B50002450DA22DECF23F0DDCF24F021502318F9
:100B600011E122502418D8A40DD020EE04F0235017
:100B7000D9262450DA22C151DE1811E1C251DE1803
:100B8000D8A40DD020EE04F02350D9262450DA2228
:100B9000C151DE18D9E1C251DE18D8A4D5D720EE54
:100BA00004F02350D9262450DA22000EDE6E000E07
:100BB000DD6EC1C0D9FFC2C0DAFF010EDF6E1200C8
:100BC00084C005F085C006F0000120EE02F08451DB
:100BD000D9268551DA22DECF07F0DDCF08F01ED00E
:100BE00020EE02F00750D9260850DA22DECF07F0B7
:100BF000DDCF08F00550071811E106500818D8A4F9
:100C00000DD020EE04F00750D9260850DA2201500A
:100C1000DE1811E10250DE18D8A40DD020EE04F049
:100C20000750D9260850DA220150DE18D9E10250C7
:100C3000DE18D8A4D5D720EE04F00750D9260850E6
:100C4000DA22000EDE6E000EDD6E01C0D9FF02C09A
:100C5000DAFF010EDF6E1200C1C08CF0C2C08DF051
:100C6000C3C092F0C4C093F0C5C098F0C6C099F05C
:100C7000C7C09EF0C8C09FF0920E00018E6F000E9C
:100C80008F6F980E946F000E956F9E0E9A6F000EE8
:100C90009B6F8C0EA06F000EA16F000E906F000E68
:100CA000916F000E966F000E976F000E9C6F000EF6
:100CB0009D6F000EA26F000EA36F8C0E846F000E4E
:100CC000856F12009E909E929E949E969E989E9AEC
:100CD0009E9C9E9E000EA16E9D909D929D949D96C1
:100CE0009D989D9A9D9C9D9E000EA06E9F909F92A8
:100CF0009F949F969F989F9A9F9C9F9E000EA26E86
:100D0000F090F092F096F098F09CF09EF19EF19C9D
:100D1000F19AF198F194F190F290F292F294F296A5
:100D2000F298F29AF29CF29ED08E1200F00E1F6E94
:100D3000FF0E206E00018851216E226A211E221EA4
:100D4000214A222A8951236E246A215023262250C7
:100D500024221F5023162050241623502410D8A4D8
:100D6000120089510F0B1F6E206AD8901F36203653
:100D7000600E1F24D96E000E2020DA6EC1C0DEFF87
:100D8000C2C0DDFF892B1200000E216E000E206E06
:100D90000001C351C411D8B41CD0010E1F6E04D081
:100DA000D890C337C4371F2AC4AFFAD7D89020369B
:100DB0002136C351C15DC451C259D8A005D0C35119
:100DC000C15FC451C25B2080D890C433C3331F2E8F
:100DD000EDD720C0C1F021C0C2F0120071EC09F0C3
:100DE000040E0001C16F090EC26FD40EC36F090E4D
:100DF000C46F2C0EC56F0E0EC66F0A0EC76F130E92
:100E0000C86F2CEC06F032EC0AF02CEC0AF028EC5F
:100E10000AF035EC0AF02FEC0AF0FEEC09F07CEC5D
:100E200009F0C8EC08F047EC05F0FDD71ED022EC25
:100E300009F00009D8A41200010E00018B6F120006
:100E4000F2B409D0F7EC09F0110E0001C35D270ED2
:100E5000C459D8A01200F29464EC09F0000E00010D
:100E60008B6F1200000E8B6F120000018B51000A75
:100E7000D8B4DDD7010AD8B4E3D7F4D7A4C0C1F001
:100E8000A5C0C2F0000E0001C46F1A0EC36FC4ECFF
:100E900006F00001C151256E010E256415D0100E1B
:100EA0008A6112D08AC022F0010E236E000E246ED9
:100EB000222A03D0D89023362436222EFBD7235063
:100EC00000018013245081138A2B1200C1C0D9FF66
:100ED000C2C0DAFFDF50800A7F0FD8A008D0C1C09F
:100EE000D9FFC2C0DAFF000EDF6E000E12D0000183
:100EF00020EE04F08451D9268551DA22C1C0DEFFEC
:100F0000C2C0DDFFC1C0D9FFC2C0DAFFFF0EDF6E75
:100F1000010E206E20501200000E206E000E1F6E7B
:100F2000000E206E000E1F6E20BE06D0205014E171
:100F3000100E1F5CD8B010D0D8901F34D96E20345A
:100F4000DA6E600ED926000EDA22000EDE6E000E7A
:100F5000DD6E1F4A202AE8D7000E0001886F88C086
:100F600089F01200206E15D0000EC6EC09F0000EBC
:100F7000BFEC09F01200000EC6EC09F0010EBFEC48
:100F800009F01200010EC6EC09F0000EBFEC09F0EA
:100F900012002050000AD8B4E7D7010AD8B4EBD722
:100FA000030AD8A41200EED7206E15D0000ED4ECA0
:100FB00009F0000ECDEC09F01200000ED4EC09F09F
:100FC000010ECDEC09F01200010ED4EC09F0000E78
:100FD000CDEC09F012002050000AD8B4E7D7010A7E
:100FE000D8B4EBD7030AD8A41200EED7206E15D0E0
:100FF000000EE2EC09F0000EDBEC09F01200000E2E
:10100000E2EC09F0010EDBEC09F01200010EE2EC5B
:1010100009F0000EDBEC09F012002050000AD8B4F1
:10102000E7D7010AD8B4EBD7030AD8A41200EED749
:10103000206E15D0000EF0EC09F0000EE9EC09F07E
:101040001200000EF0EC09F0010EE9EC09F01200BC
:10105000010EF0EC09F0000EE9EC09F0120020504E
:10106000000AD8B4E7D7010AD8B4EBD7030AD8A44A
:101070001200EED7000188518919D8A402D0000EC1
:10108000120088510F0B1F6E206AD8901F36203631
:10109000600E1F24D96E000E2020DA6EC1C0E1FF61
:1010A000C2C0E2FFDECFE6FFDDCFE5FF882B010EF9
:1010B0001200A40EF66E140EF76E000EF86E090004
:1010C000F5CFC9F000EE60F04C0EEE6AE806FDE1E7
:1010D00000EE2CF0150EEE6AE806FDE1419041921B
:1010E000000EF86E0001EEEF06F0D580D582D584B3
:1010F000D596D59AD59CD59E000ECF6E000ED66E95
:10110000D650D7CF1FF0206A1FC020F01F6A1F10D3
:10111000386E2050396ED6CF38F0396AF29412000A
:1011200092689368946895689668000E896E000EC0
:101130008A6E000E8B6E000E8C6E000E8D6EC1805E
:10114000C182C184C1861200C1C0D9FFC2C0DAFF0A
:10115000FF0EDF6E000120EE04F08451D926855188
:10116000DA22C1C0DEFFC2C0DDFF12003EEC0AF091
:101170000CEC0AF007C00BF008C00CF0F2943BEC4A
:101180000AF038EC0AF00BC009F00CC00AF01200AB
:1011900084C0D9FF85C0DAFF01D812000500FA6EBD
:1011A000DE50FD6EDE50FE6EF850FF6EFA501200FB
:1011B000D650D7CF1FF0206A1FC020F01F6A1F1023
:1011C000216E2050226E21C0C1F022C0C2F0120058
:1011D000D650D7CF03F0046A03C004F0036A0310AB
:1011E000056E0450066E05C001F006C002F0120044
:1011F000A70E0001C16F000EC26F66EC07F0000978
:10120000D8B402D0010E1200000E1200AB0E000185
:10121000C16F000EC26F66EC07F00009D8B402D0AF
:10122000010E1200000E12008DA202D0010E01D09C
:10123000000EFF0A1F6E1F468D501F18FD0B1F1852
:101240008D6E1200AA0E0001C16F000EC26F66EC17
:1012500007F00009D8B402D0010E1200000E1200EF
:10126000020EB2EC07F0020EF6EC07F0020ED4EC20
:1012700007F0020E18EC08F01200000EB2EC07F0B6
:10128000020EF6EC07F0010ED4EC07F0010E18EC9C
:1012900008F01200010EB2EC07F0010EF6EC07F0B8
:1012A000000ED4EC07F0020E18EC08F01200010E4C
:1012B000B2EC07F0010EF6EC07F0010ED4EC07F0EB
:1012C000010E18EC08F01200000EB2EC07F0000E50
:1012D000F6EC07F0000ED4EC07F0000E18EC08F066
:1012E000120013EC0AF090EC08F062EC06F075ECDA
:1012F00008F019EC0AF01200929692949292929051
:10130000939A9398939693941200F8EC08F000093E
:10131000D8A412000001864B872B120080C0C1F0B8
:1013200081C0C2F096EC06F0AFEC09F01200AA0EF4
:101330000001C16F000EC26F94EC05F01200AB0EFD
:101340000001C16F000EC26FA4EC08F01200000E85
:101350000001816F000E806F000E8A6F1200AB0ECD
:101360000001C16F000EC26F94EC05F01200AB0ECD
:101370000001C16F000EC26FA4EC08F012001F6ED6
:101380001FB002D0899401D0898412001F6E1FB053
:1013900002D0899601D0898612001F6E1FB002D03C
:1013A0008A9401D08A8412001F6E1FB002D08A96E0
:1013B00001D08A8612001F6E1FB002D0899001D022
:1013C000898012001F6E1FB002D0899201D08982DD
:1013D00012001F6E1FB002D08A9801D08A881200B6
:1013E0001F6E1FB002D08A9A01D08A8A1200D8ECF0
:1013F00008F0C1C0C3F0C2C0C4F01200000E00016A
:10140000836F82698CEC07F01200400E016E000EB3
:10141000026EE0EC05F01200E8EC08F001C007F005
:1014200002C008F01200D39EFC0ED316D3B61200F1
:10143000FDD7F292F29841EC0AF01200A40E016E70
:10144000000E026E12003950D76E38C0D6FF12005F
:101450009380F292F28812008D9496941200F28E8C
:10146000F28C12008D929692120043EC0AF0120058
:101470004DEC0AF0120023EC0AF012004FEC0AF0D7
:101480001200F19C1200D58E1200F19C12008D8486
:1014900012008D941200F18C1200D58E1200D59E90
:0514A000120012000122
:020000040020DA
:08000000FFFFFFFFFFFFFFFF00
:020000040030CA
:0E000000230E1F1EFF8181FF0FC00FE00F4077
:00000001FF
